S01A00004578616D706C65355F4865617274526174652E737265632A
S11300000C945A000C9482000C9482000C9482008C
S11300100C9482000C9482000C9482000C94820054
S11300200C9482000C9482000C9482000C94820044
S11300300C9482000C9482000C9482000C94820034
S11300400C942D0D0C9482000C94A80A0C94DA0ADA
S11300500C9482000C9482000C9482000C94820014
S11300600C945B100C948200000000080002010054
S1130070000304070000000000000000010204085F
S113008010204080010204081020010204081020FE
S1130090040404040404040402020202020203032A
S11300A00303030300000000250028002B00300791
S11300B00A0B4E0F11241FBECFEFD8E0DEBFCDBF19
S11300C012E0A0E0B1E0E2ECF4E202C005900D928F
S11300D0AC30B107D9F724E0ACE0B2E001C01D9226
S11300E0A535B207E1F710E0CAE5D0E004C02197D6
S11300F0FE010E945912C735D107C9F70E94380B77
S11301000C945F120C940000FC0180819181A28107
S1130110B381AB0160E070E02FE0440F551F661F10
S1130120771F2A95D1F7481B590B6A0B7B0B34E0D8
S113013075956795579547953A95D1F7480F591F87
S11301406A1F7B1F4083518362837383DB01CA016F
S11301504FE0B595A795979587954A95D1F708955A
S11301609F92AF92BF92CF92DF92EF92FF920F9342
S11301701F93CF93DF9390900C02C92DD0E0FE0122
S1130180EE0FFF1FE35FFD4F91838083FE013B97DA
S1130190EF71FF27EE0FFF1FE35FFD4FC080D1809B
S11301A00D2C000CEE08FF08BCE0CC0CDD1CEE1C92
S11301B0FF1CBA95D1F704E011E040E050E05E0185
S11301C086E1A81AB108D501A40FB51FAF71BB27EA
S11301D0AA0FBB1FA35FBD4FFE01E41BF50BEF711C
S11301E0FF27EE0FFF1FE35FFD4F0D90BC91A02D85
S11301F080819181A80FB91FF801219131918F015C
S11302000E942712C60ED71EE81EF91E4F5F5F4FCD
S11302104B305105C1F681E0890D8F7180930C023A
S1130220D701C6012FE0B595A795979587952A958F
S1130230D1F7DF91CF911F910F91FF90EF90DF9055
S1130240CF90BF90AF909F900895CF92DF92EF929E
S1130250FF926B017C0180915D0290915E0290930C
S11302605C0280935B02B6018DE492E00E948400FC
S113027090935602809355029601281B390BC901AD
S11302800E94B00090935E0280935D0240915B02F5
S113029050915C0257FF28C097FD26C02091570259
S11302A03091580230930301209302016091590266
S11302B070915A027093010160930001E1E0F0E053
S11302C0F0935402E093530210925202109251029E
S11302D01092580210925702261B370B25513109F0
S11302E061E0233D334008F060E0141615068CF4F9
S11302F01816190674F0109254021092530221E059
S113030030E0309352022093510210925A0210921C
S11303105902E1E0F0E04817590714F0E0E0F0E09A
S113032020915302309154022E233F23232B21F09A
S11303309093580280935702E1E0F0E08417950708
S113034014F0E0E0F0E020915102309152022E23AB
S11303503F23232B21F090935A0280935902862F36
S1130360FF90EF90DF90CF90089508950F931F931F
S1130370CF93DF93EC01162F042F888199810E947B
S1130380C50E88819981DC01ED91FC910190F08189
S1130390E02D602F099560E0888199810E94D10E3B
S11303A0612F70E041E050E0888199810E94480FFC
S11303B000E010E088819981DC01ED91FC910084DA
S11303C0F185E02D0995892B21F0083C110561F494
S11303D015C061E070E080E090E00E94A80D0F5F1E
S11303E01F4F0A3C110531F788819981DC01ED9199
S11303F0FC910284F385E02D099501C080E0DF9132
S1130400CF911F910F91089544E0FC0162810C94F7
S1130410B60146E0FC0162810C94B6014F925F92F2
S11304206F927F92AF92BF92CF92DF92EF92FF9240
S11304300F931F93CF93DF93EC010E940902F82ED0
S1130440CE010E940402F81609F4EAC0082F10E055
S11304500F19110917FF02C0005E1F4F2B81209F47
S1130460C001219F900D11247C01EE0CFF1CE80EAD
S1130470F91E67E570E0888199810E94CF0E88811A
S11304809981DC01ED91FC910190F081E02D67E010
S11304900995888199810E944B0F30E2A32EB12CDB
S11304A01E141F040CF0BEC0B1E2EB16F10464F09C
S11304B06B8133E0639FB0011124C5010E94F111E7
S11304C06501C81AD90A01C06701EC18FD08A60124
S11304D067E570E0888199810E94480F1C141D040F
S11304E0FCF680918F028F5F837080938F02712C52
S11304F088819981DC01ED91FC910284F385E02DE2
S11305000995682E88819981DC01ED91FC91028422
S1130510F385E02D0995582E88819981DC01ED91B0
S1130520FC910284F385E02D0995482EE0918F0219
S1130530B4E0EB9FF0011124E15AFD4FD301C20155
S1130540A370BB2780839183A283B3838B81823082
S113055070F188819981DC01ED91FC910284F3852D
S1130560E02D0995682E88819981DC01ED91FC913B
S11305700284F385E02D0995582E88819981DC0148
S1130580ED91FC910284F385E02D0995482EE091CC
S11305908F02B4E0EB9FF0011124E159FD4FD30128
S11305A0C201A370BB2780839183A283B3838B8111
S11305B0833070F188819981DC01ED91FC91028492
S11305C0F385E02D0995682E88819981DC01ED91F0
S11305D0FC910284F385E02D0995582E8881998138
S11305E0DC01ED91FC910284F385E02D0995482E00
S11305F0E0918F02B4E0EB9FF0011124E158FD4F2C
S1130600D301C201A370BB2780839183A283B383E8
S11306102B813DEF3203C0011124C80ED91E5ECFD9
S113062000E010E0C801DF91CF911F910F91FF907E
S1130630EF90DF90CF90BF90AF907F906F905F90DE
S11306404F9008958F929F92AF92BF92CF92DF9274
S1130650EF92FF92CF93DF93EC01C62E0E94770DA9
S11306604B015C01D12CE12CF12C0E94770DDC01B3
S1130670CB0188199909AA09BB09C816D906EA0643
S1130680FB0660F0CE010E940E02019749F061E082
S113069070E080E090E00E94A80DE7CF80E001C008
S11306A081E0DF91CF91FF90EF90DF90CF90BF90EA
S11306B0AF909F908F9008956AEF0E942203882341
S11306C069F0E0918F0284E0E89FF0011124E15980
S11306D0FD4F6081718182819381089560E070E0B3
S11306E0CB0108954FEFFC0162810C94B601CF93C6
S11306F0DF93EC014EEF6A810E94B6018C83DF9197
S1130700CF910895CF92DF92EF92FF920F93CF9300
S1130710DF93EC01CB0169017A01798368830E943C
S1130720B70EB701A601888199810E94C10E0A8380
S1130730CE010E947203CE010E94770381E0DF9113
S1130740CF910F91FF90EF90DF90CF9008950F938A
S11307501F93CF93DF93EC01042F122F888199818B
S11307600E94C50E88819981DC01ED91FC91019074
S1130770F081E02D602F099588819981DC01ED914C
S1130780FC910190F081E02D612F09958881998178
S1130790DF91CF911F910F910C944B0F262F4CE0BA
S11307A0FC0162810C94A703262F4DE0FC016281B9
S11307B00C94A703262F4EE0FC0162810C94A7033E
S11307C0262F40E1FC0162810C94A703CF93DF93B1
S11307D0EC0120E044E06A810E94A70320E045E0A8
S11307E06A81CE010E94A70320E046E06A81CE011F
S11307F0DF91CF910C94A703FF920F931F93CF9394
S1130800DF93EC01F62E042F122F462F6A810E94EB
S1130810B6018023282F212B4F2D6A81CE01DF9131
S1130820CF911F910F91FF900C94A703CF92DF9269
S1130830EF92FF92CF93DF93EC0120E44FEB69E05A
S11308400E94FC030E94770D6B017C010E94770DCE
S1130850DC01CB018C199D09AE09BF0984369105D1
S1130860A105B10570F449E06A81CE010E94B60188
S113087086FF07C061E070E080E090E00E94A80D70
S1130880E5CFDF91CF91FF90EF90DF90CF90089567
S1130890262F48EF69E00C94FC03262F4FE96AE009
S11308A00C94FC03262F43EE6AE00C94FC03262FE1
S11308B04CEF6AE00C94FC03262F4FE168E00C94A3
S11308C0FC0320E14FEE68E00C94FC03242F62301B
S11308D059F018F4613031F00895633051F0643008
S11308E051F0089548EF03C02295207F4FE861E15D
S11308F006C048EF03C02295207F4FE862E10C94C4
S1130900FC039F92AF92BF92CF92DF92EF92FF923D
S11309100F931F93CF93DF93EC01962EB42EA22E48
S11309200E94160481E0B81202C060E018C082E0A0
S1130930B81202C060E213C084E0B81202C060E4DE
S11309400EC088E0B81202C060E609C080E1B812A7
S113095002C060E804C080E2B812F1CF60EACE01C0
S11309600E945C04CE010E94610483E0A81202C0CC
S113097067E006C082E0A81202C063E001C062E042
S1130980CE010E944804AB82C11480E1D80614F45D
S113099060E011C0C11480E2D80614F460E20BC018
S11309A0C11480E4D80614F460E405C0C11480E4E2
S11309B0D80671F760E6CE010E944D040436110595
S11309C014F460E027C0083C110514F464E022C06C
S11309D0003981E0180714F468E01CC0003283E099
S11309E0180714F46CE016C0083E83E0180714F4EA
S11309F060E110C0003486E0180714F464E10AC012
S1130A0000388CE0180714F468E104C000381C4076
S1130A10C1F66CE1CE010E94520486E7E816F104A7
S1130A2014F460E013C087EDE816F10414F461E0F7
S1130A300DC08BE9E81681E0F80614F462E006C004
S1130A408BE9E81681E0F80661F763E0CE010E94C5
S1130A505704692DCE010E94CE03692DCE010E9458
S1130A60D403692DCE010E94DA03692DCE010E94C0
S1130A70E00341E061E0CE010E94660481E08A1552
S1130A8070F420E24FE861E1CE010E94FC0382E0B1
S1130A90A81629F043E063E0CE010E946604CE016B
S1130AA0DF91CF911F910F91FF90EF90DF90CF9046
S1130AB0BF90AF909F900C94E603CF92DF92EF9299
S1130AC0FF920F931F9326E040E855E260E070E048
S1130AD08FEE92E00E94400A6CE171E08FEE92E0AA
S1130AE00E94930B07E520E83AE146E050E065E90F
S1130AF073E08AEE92E00E948203811107C06CE2E7
S1130B0071E08FEE92E00E94930BFFCF60E671E0FC
S1130B108FEE92E00E94930BC12C80E1D82E9BE9CA
S1130B20E92EFF24F39400E911E023E044E06FE1AF
S1130B308AEE92E00E9481046AE08AEE92E00E94CA
S1130B40CE0360E08AEE92E01F910F91FF90EF9048
S1130B50DF90CF900C94DA037F928F929F92AF92A2
S1130B60BF92CF92DF92EF92FF920F931F93CF9396
S1130B70DF936B017C01EA017CAC5A0184E0789E2E
S1130B80A00CB11C11248A01035C1F4FF5012081C4
S1130B90318142815381F801608171818281938125
S1130BA00E943407F501C082D182E282F382A70158
S1130BB096010E9435074B015C01F8016083718343
S1130BC08283938381E0870D6FE00E94E5119CAFDF
S1130BD0CF5BDF4F88818F3010F48F5F888368810B
S1130BE070E080E090E00E9449089B01AC01C501DF
S1130BF0B4010E94A607A70196010E943407DF9161
S1130C00CF911F910F91FF90EF90DF90CF90BF9005
S1130C10AF909F908F907F9008954F925F926F92C4
S1130C207F928F929F92AF92BF92CF92DF92EF9278
S1130C30FF920F931F93CF938AEE92E00E945C037E
S1130C406B017C010E942501882309F46FC00E9476
S1130C50770D00919702109198022091990230919A
S1130C609A024B015C01801A910AA20AB30A0E94FB
S1130C70770D6093970270939802809399029093F2
S1130C809A02C501B4010E94490820E030E04AE715
S1130C9054E40E94A6079B01AC0160E070E080E789
S1130CA092E40E94A6074B015C0160939302709347
S1130CB09402809395029093960220E030E04FE7EF
S1130CC053E40E94A10787FF31C020E030E040EAEE
S1130CD051E4C501B4010E94F90818163CF5C0910D
S1130CE09B020C2F10E004561D4FC501B4010E9455
S1130CF01808F8016083CF5FC370C0939B022091F2
S1130D009C0280919D0290E0820F911D20919E0291
S1130D10820F911D20919F02820F911D95958795B9
S1130D209595879590939202809391024090E20268
S1130D305090E3026090E4027090E5028AEE92E043
S1130D400E945C030E9447084B015C0123E333E3E8
S1130D5043E75FE3C301B2010E94FE089B01AC01BB
S1130D60C501B4010E9435074B015C01A301920146
S1130D700E9434078092E2029092E302A092E4027D
S1130D80B092E5026093E6027093E7028093E80272
S1130D909093E90240EA52E00E94AC054B015C01E9
S1130DA06CE971E08FEE92E00E94860B2AE030E05D
S1130DB0B701A6018FEE92E00E94010C60EA71E097
S1130DC08FEE92E00E94860B409193025091940220
S1130DD0609195027091960222E030E08FEE92E0ED
S1130DE00E942B0D67EA71E08FEE92E00E94860B61
S1130DF060919102709192024AE050E08FEE92E08D
S1130E000E94490C62EB71E08FEE92E00E94860B27
S1130E1022E030E0B501A4018FEE92E00E942B0D98
S1130E20F0E5CF16F3ECDF06E104F10434F46CECE6
S1130E3071E08FEE92E00E94860B8FEE92E0CF91EC
S1130E401F910F91FF90EF90DF90CF90BF90AF90E4
S1130E509F908F907F906F905F904F900C948F0B2A
S1130E608AEE92E00C94B5015058BB27AA270E9441
S1130E704C070C94BF080E94B10838F00E94B808CF
S1130E8020F039F49F3F19F426F40C94AE080EF4C4
S1130E90E095E7FB0C94A808E92F0E94D00858F3CA
S1130EA0BA17620773078407950720F079F4A6F54B
S1130EB00C94F2080EF4E0950B2EBA2FA02D0B0122
S1130EC0B90190010C01CA01A0011124FF27591B8B
S1130ED099F0593F50F4503E68F11A16F040A22F91
S1130EE0232F342F4427585FF3CF46953795279502
S1130EF0A795F0405395C9F77EF41F16BA0B620B01
S1130F00730B840BBAF09150A1F0FF0FBB1F661F47
S1130F10771F881FC2F70EC0BA0F621F731F841F8A
S1130F2048F4879577956795B795F7959E3F08F0B0
S1130F30B0CF9395880F08F09927EE0F9795879572
S1130F4008950E94840808F481E008950E94BA0775
S1130F500C94BF080E94B80858F00E94B10840F0F1
S1130F6029F45F3F29F00C94A80851110C94F3085C
S1130F700C94AE080E94D00868F39923B1F355236A
S1130F8091F3951B550BBB27AA2762177307840798
S1130F9038F09F5F5F4F220F331F441FAA1FA9F32E
S1130FA035D00E2E3AF0E0E832D091505040E6951C
S1130FB0001CCAF72BD0FE2F29D0660F771F881F7D
S1130FC0BB1F261737074807AB07B0E809F0BB0B70
S1130FD0802DBF01FF2793585F4F3AF09E3F510584
S1130FE078F00C94A8080C94F3085F3FE4F3983E5F
S1130FF0D4F3869577956795B795F7959F5FC9F76D
S1131000880F911D9695879597F90895E1E0660FED
S1131010771F881FBB1F621773078407BA0720F066
S1131020621B730B840BBA0BEE1F88F7E0950895CF
S11310300E94D80888F09F5798F0B92F9927B75184
S1131040B0F0E1F0660F771F881F991F1AF0BA9568
S1131050C9F714C0B13091F00E94F208B1E00895CC
S11310600C94F208672F782F8827B85F39F0B93FBE
S1131070CCF3869577956795B395D9F73EF490951B
S11310808095709561957F4F8F4F9F4F0895E89499
S113109009C097FB3EF490958095709561957F4FBC
S11310A08F4F9F4F9923A9F0F92F96E9BB2793956A
S11310B0F695879577956795B795F111F8CFFAF47A
S11310C0BB0F11F460FF1BC06F5F7F4F8F4F9F4FAB
S11310D016C0882311F096E911C0772321F09EE809
S11310E0872F762F05C0662371F096E8862F70E06F
S11310F060E02AF09A95660F771F881FDAF7880F49
S11311009695879597F90895990F0008550FAA0B9E
S1131110E0E8FEEF16161706E807F907C0F0121606
S11311201306E407F50798F0621B730B840B950B09
S113113039F40A2661F0232B242B252B21F408955E
S11311400A2609F4A140A6958FEF811D811D0895FB
S113115097F99F6780E870E060E008959FEF80EC66
S1131160089500240A941616170618060906089509
S113117000240A9412161306140605060895092E6F
S11311800394000C11F4882352F0BB0F40F4BF2BDE
S113119011F460FF04C06F5F7F4F8F4F9F4F08951E
S11311A057FD9058440F551F59F05F3F71F0479514
S11311B0880F97FB991F61F09F3F79F087950895F9
S11311C0121613061406551FF2CF4695F1DF08C018
S11311D0161617061806991FF1CF86957105610535
S11311E008940895E894BB2766277727CB0197F9DD
S11311F008950E94840808F48FEF08950E9411094D
S11312000C94BF080E94B10838F00E94B80820F07E
S1131210952311F00C94A8080C94AE0811240C9496
S1131220F3080E94D00870F3959FC1F3950F50E026
S1131230551F629FF001729FBB27F00DB11D639F84
S1131240AA27F00DB11DAA1F649F6627B00DA11D2A
S1131250661F829F2227B00DA11D621F739FB00DD0
S1131260A11D621F839FA00D611D221F749F332740
S1131270A00D611D231F849F600D211D822F762FD9
S11312806A2F11249F5750409AF0F1F088234AF0B6
S1131290EE0FFF1FBB1F661F771F881F9150504022
S11312A0A9F79E3F510580F00C94A8080C94F3080C
S11312B05F3FE4F3983ED4F3869577956795B795A9
S11312C0F795E7959F5FC1F7FE2B880F911D9695C3
S11312D0879597F90895FC01918D228D892F90E0CF
S11312E0805C9F4F821B91098F7399270895FC019D
S11312F0918D828D981731F0828DE80FF11D858DC7
S113130090E008958FEF9FEF0895FC01918D828DF9
S1131310981761F0828DDF01A80FB11D5D968C9145
S1131320928D9F5F9F73928F90E008958FEF9FEF50
S11313300895FC01538D448D252F30E0842F90E0D7
S1131340821B930B541710F0CF96089501970895BC
S113135080E09BE0892B49F080E090E0892B29F024
S11313600E94000B81110C9400000895FC01848DEF
S1131370DF01A80FB11DA35ABF4F2C91848D90E0BB
S113138001968F739927848FA689B7892C93A08996
S1131390B1898C9180648C93938D848D981306C04D
S11313A00288F389E02D80818F7D80830895EF92F8
S11313B0FF920F931F93CF93DF93EC0181E0888F0B
S11313C09B8D8C8D981305C0E889F989808185FDF2
S11313D024C0F62E0B8D10E00F5F1F4F0F731127E3
S11313E0E02E8C8DE8120CC00FB607FCFACFE8890A
S11313F0F989808185FFF5CFCE010E94B609F1CF2E
S11314008B8DFE01E80FF11DE35AFF4FF0820B8F25
S1131410EA89FB898081806207C0EE89FF89608345
S1131420E889F98980818064808381E090E0DF919C
S1131430CF911F910F91FF90EF900895CF93DF9379
S1131440EC01888D8823C9F0EA89FB89808185FDB8
S113145005C0A889B9898C9186FD0FC00FB607FC19
S1131460F5CF808185FFF2CFA889B9898C9185FF5A
S1131470EDCFCE010E94B609E7CFDF91CF91089559
S1131480CF92DF92EF92FF921F93CF93DF93EC0101
S11314906A017B01122FE889F98982E08083411572
S11314A0514E61057105B1F060E079E08DE390E0A3
S11314B0A70196010E940512DA01C9010197A10949
S11314C0B109B695A795979587959C01211580E15B
S11314D03807A8F0E889F989108260E874E88EE199
S11314E090E0A70196010E940512DA01C901019753
S11314F0A109B109B695A795979587959C01EC85A7
S1131500FD853083EE85FF852083188EEC89FD8967
S11315101083EA89FB89808180618083EA89FB8961
S1131520808188608083EA89FB89808180688083E8
S1131530EA89FB8980818F7D8083DF91CF911F9120
S1131540FF90EF90DF90CF90089580E090E00895B1
S11315501F920F920FB60F9211242F938F939F9384
S1131560EF93FF93E091FF02F09100038081E091FB
S11315700503F091060382FD12C090818091080357
S11315808F5F8F7320910903821751F0E091080354
S1131590F0E0E151FD4F958F8093080301C08081F5
S11315A0FF91EF919F918F912F910F900FBE0F900C
S11315B01F9018951F920F920FB60F9211242F931C
S11315C03F934F935F936F937F938F939F93AF93C7
S11315D0BF93EF93FF938FEE92E00E94B609FF91C1
S11315E0EF91BF91AF919F918F917F916F915F9197
S11315F04F913F912F910F900FBE0F901F90189510
S11316008FEE92E00E946B0921E0892B09F420E01F
S1131610822F0895EFEEF2E01382128288EE93E0B7
S1131620A0E0B0E084839583A683B7838CED91E03A
S11316309183808385EC90E09587848784EC90E0A7
S11316409787868780EC90E0918B808B81EC90E08B
S1131650938B828B82EC90E0958B848B86EC90E06C
S1131660978B868B118E128E138E148E0895089587
S11316700E94E40D0E94370B0E945D05C8EAD9E080
S11316800E940D062097E1F30E94A809F9CFCF929A
S1131690DF92EF92FF920F931F93CF93DF936C012E
S11316A07A018B01C0E0D0E0CE15DF0581F0D801CE
S11316B06D918D01D601ED91FC910190F081E02DA9
S11316C0C6010995892B11F02196EECF7E01C70141
S11316D0DF91CF911F910F91FF90EF90DF90CF900A
S11316E008956115710579F0FB0101900020E9F777
S11316F03197AF01461B570BDC01ED91FC91028041
S1131700F381E02D099480E090E008950C94710B2E
S1131710DC01ED91FC910190F081E02D09946AEED9
S113172071E00C94710B0F931F93CF93DF93EC0133
S11317300E94710B8C01CE010E948F0B800F911FB0
S1131740DF91CF911F910F9108958F929F92AF9245
S1131750BF92EF92FF920F931F93CF93DF93CDB776
S1131760DEB7A1970FB6F894DEBF0FBECDBF7C01E4
S1131770FA01CB0119A2223008F42AE08E010F5D90
S11317801F4F822E912CA12CB12CBF01A5019401D5
S11317900E940512F901CA01015011096A3010F4BE
S11317A0605D01C0695CD8016C93232B242B252B2D
S11317B061F7B801C7010E94710BA1960FB6F894A6
S11317C0DEBF0FBECDBFDF91CF911F910F91FF9070
S11317D0EF90BF90AF909F908F90089521153105A1
S11317E041F4DC01ED91FC910190F081E02D642F36
S11317F009940C94A50B9A01AB0160E070E00C9481
S1131800EE0BCF92DF92EF92FF920F931F93CF9341
S1131810DF932115310581F4DC01ED91FC910190F8
S1131820F081E02D642FDF91CF911F910F91FF90F4
S1131830EF90DF90CF9009942A30310501F577FFBE
S11318401DC06A017B01EC016DE20E94880B8C01D2
S113185044275527BA014C195D096E097F092AE00E
S1131860CE010E94A50B800F911FDF91CF911F9194
S11318700F91FF90EF90DF90CF9008952AE0DF91D1
S1131880CF911F910F91FF90EF90DF90CF900C9428
S1131890A50B9A01AB01770F660B770B0C94010C27
S11318A07F928F929F92AF92BF92CF92DF92EF92EC
S11318B0FF920F931F93CF93DF938C016A017B01F7
S11318C0722E9A01AB01C701B6010E94E011882370
S11318D019F06DEE71E027C046015701E894B7F89E
S11318E02FEF3FEF4FE75FE7C501B4010E94E0111E
S11318F081110DC02FEF3FEF4FE75FE7C501B40142
S11319000E94A10718161CF461EF71E00CC02FEFC0
S11319103FEF4FE75FE4C701B6010E94F9081816CC
S113192094F465EF71E0C801DF91CF911F910F919D
S1131930FF90EF90DF90CF90BF90AF909F908F90EB
S11319407F900C94710B2FEF3FEF4FE75FECC701D3
S1131950B6010E94A10787FDE4CF20E030E0A90191
S1131960C701B6010E94A10787FF0AC06DE2C80142
S11319700E94880BEC01F7FAF094F7F8F09402C097
S1131980C0E0D0E0B12C60E070E080E09FE37B1425
S113199041F020E030E040E251E40E94A607B39415
S11319A0F6CFA70196010E9435076B017C010E94C6
S11319B018084B015C012AE0AB01BC01C8010E947C
S11319C0A50BC80FD91F7720B9F1C501B4010E9436
S11319D047089B01AC01C701B6010E9434076B01A3
S11319E07C016EE2C8010E94880BC80FD91F20E059
S11319F030E040E251E4C701B6010E94FE084B0109
S1131A005C010E9418086B017C014AE050E0C801A7
S1131A100E94FB0BC80FD91FB60180E090E00E9422
S1131A2047089B01AC01C501B4010E9434076B0156
S1131A307C017A947110DBCFCE01DF91CF911F919D
S1131A400F91FF90EF90DF90CF90BF90AF909F9059
S1131A508F907F9008950C94500C1F920F920FB6A4
S1131A600F9211242F933F938F939F93AF93BF9320
S1131A7080918D0390918E03A0918F03B091900378
S1131A8030918C0323E0230F2D3720F40196A11D00
S1131A90B11D05C026E8230F0296A11DB11D209398
S1131AA08C0380938D0390938E03A0938F03B09344
S1131AB090038091910390919203A0919303B0912C
S1131AC094030196A11DB11D8093910390939203F9
S1131AD0A0939303B0939403BF91AF919F918F917F
S1131AE03F912F910F900FBE0F901F9018952FB715
S1131AF0F89460918D0370918E0380918F0390917F
S1131B0090032FBF08953FB7F8948091910390916B
S1131B109203A0919303B091940326B5A89B05C0AA
S1131B202F3F19F00196A11DB11D3FBFBA2FA92F58
S1131B30982F8827820F911DA11DB11DBC01CD01D5
S1131B4042E0660F771F881F991F4A95D1F70895C1
S1131B508F929F92AF92BF92CF92DF92EF92FF92B9
S1131B606B017C010E94830D4B015C01C114D10403
S1131B70E104F10401F10E94520F0E94830DDC0183
S1131B80CB0188199909AA09BB09883E9340A1058C
S1131B90B10560F321E0C21AD108E108F10888EE2A
S1131BA0880E83E0981EA11CB11CC114D104E10469
S1131BB0F10419F7DBCFFF90EF90DF90CF90BF9047
S1131BC0AF909F908F900895789484B5826084BD7F
S1131BD084B5816084BD85B5826085BD85B581602D
S1131BE085BDEEE6F0E0808181608083E1E8F0E08D
S1131BF01082808182608083808181608083E0E8BC
S1131C00F0E0808181608083E1EBF0E0808184609A
S1131C108083E0EBF0E0808181608083EAE7F0E09C
S1131C208081846080838081826080838081816000
S1131C3080838081806880831092C10008958091A0
S1131C40C50390E02091C603821B910908959091E9
S1131C50C6038091C503981750F4E92FF0E0E953C7
S1131C60FC4F208130E09F5F9093C60302C02FEFAA
S1131C703FEFC9010895E091C6038091C503E817B9
S1131C8030F4F0E0E953FC4F808190E008958FEF49
S1131C909FEF08950895CF92DF92EF92FF920F93F2
S1131CA01F93CF93DF937C01CB018A012091A10381
S1131CB0222389F0EB016B01C40ED51ECC15DD0582
S1131CC069F06991D701ED91FC910190F081E02DCB
S1131CD0C7010995F3CF642F0E942310C801DF9137
S1131CE0CF911F910F91FF90EF90DF90CF900895C7
S1131CF0CF93DF931F92CDB7DEB769832091A10301
S1131D002223D1F02091A203203240F021E030E0E0
S1131D10FC013383228380E090E015C08091A3030B
S1131D20E82FF0E0EC55FC4F998190838F5F80930E
S1131D30A3038093A20305C061E0CE0101960E9433
S1131D40231081E090E00F90DF91CF910895FC0182
S1131D501382128288EE93E0A0E0B0E0848395833E
S1131D60A683B7838DEF91E09183808308951092C9
S1131D70C6031092C5031092A3031092A2030C94FD
S1131D80530FCB01BA010C94710F81E08093A1032E
S1131D906093C4031092A3031092A20308950C94B9
S1131DA0C50E0F93062F21E04091A20364EA73E06D
S1131DB08091C4030E94CD0F1092A3031092A2033A
S1131DC01092A1030F9108954F925F926F927F92A8
S1131DD0AF92BF92CF92EF92FF920F931F93CF9344
S1131DE0DF935C01F62ED42F28013901EE2021F176
S1131DF00E94C50ECE2DC43008F0C3E0C150C0F01F
S1131E0028E0C29FC0011124A301920104C0569589
S1131E104795379527958A95D2F7CA01B901D50117
S1131E20ED91FC910190F081E02DC5010995E6CF7B
S1131E3060E0C5010E94D10E4D2FD13208F040E27E
S1131E402C2D67EC73E08F2D0E94850F1092C60332
S1131E508093C503DF91CF911F910F91FF90EF9075
S1131E60CF90BF90AF907F906F905F904F90089508
S1131E70CF92EF920F931F93C22EE12C00E010E05B
S1131E8098010E94E40E1F910F91EF90CF90089556
S1131E9021E00C94380F61E00C94D10E85E993E0B5
S1131EA00C94A70E08951092540481E08093520478
S1131EB01092510461E082E10E94B11161E083E17A
S1131EC00E94B111E9EBF0E080818E7F80838081F4
S1131ED08D7F808388E48093B80085E48093BC0080
S1131EE008959B01AC0160E074E284EF90E00E94ED
S1131EF00512DA01C9014097A109B109B695A79560
S1131F00979587958093B8000895413208F043C0AF
S1131F10909154049111FCCF91E090935404209338
S1131F2052042FEF2093E70310922C04240F2093E4
S1131F302B049093530490915304880F892B80931E
S1131F40530480915104813061F4109251048091C2
S1131F5053048093BB008091BC0083FDF8CF85ECD3
S1131F6001C085EE8093BC00809154048130E1F37C
S1131F7080912C04841710F440912C04ADE2B4E059
S1131F80962FFB018E2F891B841718F48D91819352
S1131F90F9CF842F089580E008950F93413208F01B
S1131FA04AC0909154049111FCCF32E03093540410
S1131FB0009352043FEF3093E70310922C044093B4
S1131FC02B04562FADE2B4E0FB013E2F351B341732
S1131FD018F431913D93F9CF109253043091530486
S1131FE0880F832B8093530480915104813061F4D2
S1131FF010925104809153048093BB008091BC00E3
S113200083FDF8CF85EC01C085EE8093BC002223CC
S113201021F0809154048230D1F38091E7038F3F03
S113202079F08091E703803241F08091E7038033B7
S113203031F094E005C091E003C092E001C093E068
S1132040892F0F91089540910904262F30E0240F21
S1132050311D21323105DCF4209154042430C9F4BB
S1132060FC0180E090E0861758F430910904219136
S1132070DC01A55FBB4FA30FB11D2C930196F3CFD9
S113208080910904680F6093090480E0089581E059
S1132090089582E0089585ED8093BC008091BC0092
S11320A084FDFCCF10925404089585EC8093BC0009
S11320B01092540408951F920F920FB60F92112498
S11320C02F933F934F935F936F937F938F939F933C
S11320D0AF93BF93EF93FF938091B900887F8036CD
S11320E009F49EC078F5883209F45DC090F480311B
S11320F009F456C038F4882309F4F5C0883009F48B
S11321004FC0F5C0883109F44EC0803209F45FC075
S1132110EEC0803409F46AC058F4803309F457C01F
S1132120883309F0E4C08093E7030E945510DFC0B0
S1132130803509F44FC0883509F45DC0883409F04E
S1132140D6C0D3C0883909F4C4C0A8F4883709F4C8
S113215067C038F4883609F463C0803709F460C076
S1132160C6C0883809F4B5C0803909F45FC0803826
S113217009F0BDC05BC0803B09F483C038F4803AE9
S113218009F466C0883A09F47CC0B1C0803C09F403
S1132190A4C0883C09F4A1C0883B09F487C0A7C047
S11321A08091530410C090912C0480912B049817B3
S11321B070F5E0912C0481E08E0F80932C04F0E004
S11321C0E35DFB4F80818093BB0085EC83C08093EB
S11321D0E7038BC0E0912C0481E08E0F80932C04E4
S11321E08091BB00F0E0E35DFB4F808390912C0471
S11321F080912B046BC0E0912C0481E08E0F8093BE
S11322002C048091BB00F0E0E35DFB4F8083809160
S1132210520481116AC081E08093510484EA5EC053
S113222083E0809354041092E803CFCF8091E803B5
S1132230803208F04EC0E091E80381E08E0F809375
S1132240E8038091BB00F0E0E751FC4F8083BDCFF1
S11322500E9455108091E803803230F4E091E80345
S1132260F0E0E751FC4F10826091E80370E0E091E8
S11322704D04F0914E0489EE93E009951092E80321
S113228036C084E08093540410920A041092090426
S1132290E0914F04F0915004099580910904811153
S11322A005C081E08093090410920B04E0910A04B4
S11322B081E08E0F80930A04F0E0E55FFB4F80819C
S11322C08093BB0090910A0480910904981708F444
S11322D07CCF85E88093BC000AC085EC8093BC0069
S11322E01092540404C01092E7030E944B10FF9113
S11322F0EF91BF91AF919F918F917F916F915F917A
S11323004F913F912F910F900FBE0F901F901895F2
S1132310833081F028F4813099F08230A1F008955F
S11323208730A9F08830B9F08430D1F480918000EE
S11323308F7D03C0809180008F7780938000089503
S113234084B58F7702C084B58F7D84BD0895809154
S1132350B0008F7703C08091B0008F7D8093B00070
S113236008951F93CF93DF93282F30E0F901E859A4
S1132370FF4F8491F901E458FF4FD491F901E057DC
S1132380FF4FC491CC23C1F0162F81110E948811F4
S1132390EC2FF0E0EE0FFF1FEC55FF4FA591B49129
S11323A09FB7F894111104C08C91D095D82302C022
S11323B0EC91DE2BDC939FBFDF91CF911F910895A9
S11323C00E948408880B990B0895991B79E004C036
S11323D0991F961708F0961B881F7A95C9F7809560
S11323E0089597FB072E16F4009407D077FD09D0C3
S11323F00E94451207FC05D03EF4909581959F4FAD
S11324000895709561957F4F0895A1E21A2EAA1B35
S1132410BB1BFD010DC0AA1FBB1FEE1FFF1FA21790
S1132420B307E407F50720F0A21BB30BE40BF50B8D
S1132430661F771F881F991F1A9469F76095709516
S1132440809590959B01AC01BD01CF0108950E9438
S11324502F12332312F48A1B9B0B0C944012A29F5D
S1132460B001B39FC001A39F700D811D1124911D64
S1132470B29F700D811D1124911D08950E942F1289
S1132480B7FF0895821B930B0895AA1BBB1B51E150
S113249007C0AA1FBB1FA617B70710F0A61BB70BD0
S11324A0881F991F5A95A9F780959095BC01CD0175
S11324B00895EE0FFF1F0590F491E02D0994F89410
S10524C0FFCF48
S11324C2ECFF1400AC00410143029F035005420794
S11324D25609640B3F0DB80EAC0F0010496E6974B7
S11324E269616C697A696E672E2E2E004D415833EC
S11324F23031303520776173206E6F7420666F75CA
S11325026E642E20506C6561736520636865636B2D
S113251220776972696E672F706F7765722E20005B
S1132522506C61636520796F757220696E64657899
S11325322066696E676572206F6E20746865207309
S1132542656E736F72207769746820737465616451
S1132552792070726573737572652E0049523D005D
S11325622C2042504D3D002C204176672042504D94
S11325723D002C204D65616E204469666665726576
S11325826E63652046696C7465723D00204E6F204F
S113259266696E6765723F0000000000D709470B49
S11325A299091E0A6B09850977090D0A006E616E85
S11325B200696E66006F76660000000000780E4BBC
S10F25C20EA50A4A0E1F0E270E3B0E0049
S9030000FC
